:020000040000FA
:080000008301000000008629C5
:020008000800EE
:06000A00A1018518192870
:100010000B10C01A12280B181928051EB4280B182B
:1000200019280B280B181928051AB4280B18192899
:1000300012288B1000000518A1178B1C1D28051D08
:100040001F288B100B10051821178B1C2528051D48
:1000500027288B1000000518A1168B1C2D28051DC4
:100060002F288B100000051821168B1C3528051D24
:1000700037288B1000000518A1158B1C3D288B100C
:100080000000051D3F28051821158B1C4528051D5E
:1000900047288B1000000518A1148B1C4D28051D46
:1000A0004F288B100000051821148B1C55280B18A5
:1000B00005280F30210603196828C11B7128CD308F
:1000C000210603199B28CE3021060319AA280528EA
:1000D000C11F4429C11A82280930A3007C21C10A0A
:1000E000052883168512831240088500EB206030B6
:1000F000A3007C21C01A7F28051E7C289128051AA0
:100100007F28912883168512831240088500EB20F2
:10011000C830A3007C21C830A3007C21C830A300D4
:100120007C214008203A850083168516831230080A
:10013000B100C10105288519A22800303006031935
:100140006121A6280130300603196121B003E320A4
:1001500080210528B00A0430300603196421E32009
:100160009430A3007C2105286C216C216C21C01ADD
:10017000BC28051A0528BE28051E05289430A300B2
:10018000C01AC8286C21051A7128A30BC228CD28D3
:100190006C21051E7128A30BC828B00A0430300654
:1001A00003196421E3209430A300C01ADD286C21D8
:1001B000051A0528A30BD728CD286C21051E052874
:1001C000A30BDD28CD28003031060319112900309A
:1001D00030060319112901303006031905290230B0
:1001E0003006031909290330300603190D290030A0
:1001F00030060319FC280229851902290030303AFB
:10020000870039290130B000E3281B30303A8700DD
:1002100039292D30303A870039293E30303A87006D
:10022000392900303006031922290130300603191C
:1002300028290230300603192E290330300603190D
:100240003429022907080F390038303A8700392944
:1002500007080F391038303A8700392907080F3955
:100260002038303A8700392907080F393038303ABA
:100270008700300883169A001C1555309D00AA305F
:100280009D009C14831208000730303A303903195E
:10029000532907083F39C1001030303A87003C30FD
:1002A000A3007C215C2907083F39C1000030303AA7
:1002B00087003C30A3007C2141088700C101C117A1
:1002C00005280430B0000800851969290030B00005
:1002D00008000130B0000800810183160108F039E0
:1002E000810083121430A2008B160B110B1D76298E
:1002F000A20B75298B1208006C21A30B7C29080026
:100300009430A3006C21A30B82290800850187018A
:100310000730990018308B00831670308F009101E0
:100320003F308500870102309600803081008312C3
:10033000B001B101031083169B011C141A0883122B
:10034000B000B100EB20C0012030051EC00011211B
:04035000C1010528BA
:04035400003400343D
:02400E00D438A4
:024200000100BB
:00000001FF
