:020000040000FA
:080000008301000000009C29AF
:020008000800EE
:06000A00A1018518192870
:100010000B10C01A12280B181928051EB5280B182A
:1000200019280B280B181928051AB5280B18192898
:100030001228851819288B100518A1178B1C1E284B
:10004000051D20288B100B10051821178B1C262846
:10005000051D28288B1000000518A1168B1C2E28C2
:10006000051D30288B100000051821168B1C362822
:10007000051D38288B1000000518A1158B1C3E2883
:100080008B100000051D4028051821158B1C4628E3
:10009000051D48288B1000000518A1148B1C4E2844
:1000A000051D50288B100000051821148B1C5628A4
:1000B0000B1805280F30210603196928C11B722867
:1000C000CD30210603199C28CE3021060319AB2818
:1000D0000528C11F5929C11A83280930A30092217C
:1000E000C10A052883168512831240088500EC207A
:1000F0006030A3009221C01A8028051E7D28922816
:10010000051A8028922883168512831240088500DC
:10011000EC20C830A3009221C830A3009221C8303F
:10012000A30092214008203A850083168516831289
:100130003008B100C10105288519A3280030300618
:1001400003197721A7280130300603197721B0035E
:10015000E42096210528B00A0430300603197A21DC
:10016000E4209430A300922105288221822182215B
:10017000C01ABD28051A0528BF28051E0528943079
:10018000A300C01AC9288221051A7228A30BC3280C
:10019000CE288221051E7228A30BC928B00A04307C
:1001A000300603197A21E4209430A300C01ADE2817
:1001B0008221051A0528A30BD828CE288221051EE6
:1001C0000528A30BDE28CE28003031060319262986
:1001D00000303006031926290130300603190B2997
:1001E00002303006031914290330300603191D2983
:1001F000003030060319FD280829851908298701D0
:1002000083160730870083120030303A87004E296A
:100210000130B000E428870183160630870083127E
:100220001830303A87004E29870183160530870041
:1002300083122830303A87004E2987018316033015
:10024000870083123830303A87004E29003030065C
:10025000031937290130300603193D2902303006D1
:1002600003194329033030060319492908290708CF
:1002700008390038303A87004E2907080839103805
:10028000303A87004E29070808392038303A87006D
:100290004E29070808393038303A8700300883166D
:1002A0009A001C1555309D00AA309D009C148312A5
:1002B00008000730303A303903196829070808392F
:1002C000C1001038303A87003C30A30092217129D8
:1002D00007080839C1000038303A87003C30A300D5
:1002E0009221410838398700C101C117052804301F
:1002F000B000080085197F290030B00008000130E7
:10030000B0000800810183160108F03981008312D2
:100310001430A2008B160B110B1D8C29A20B8B29FC
:100320008B1208008221A30B922908009430A300AD
:100330008221A30B982908008501870107309900C5
:1003400018308B00831670308F0091013F3085008C
:100350000630870002309600803081008312B001A1
:10036000B101031083169B011C141A088312B000FC
:10037000B100EC20C0012030051EC0002621C101C3
:0203800005284E
:04038200003400340F
:02400E00D438A4
:024200000100BB
:00000001FF
