:020000040000FA
:080000008301000000008F29BC
:020008000800EE
:06000A00A1018518192870
:100010000B10C01A12280B181928051EBD280B1822
:1000200019280B280B181928051ABD280B18192890
:100030001228851819288B100518A1178B1C1E284B
:100040000B108B1005088B1C050801398B1C23280D
:10005000031D21178B1005088B1C050801398B1C0B
:100060002C28031DA1168B1005088B1C05080139CF
:100070008B1C3528031D21168B1005088B1C0508C9
:1000800001398B1C3E28031DA1158B1005088B1C04
:10009000050801398B1C4728031D21158B10050805
:1000A0008B1C050801398B1C5028031DA1148B10D3
:1000B00005088B1C050801398B1C5928031D2114C8
:1000C0000B1805280F30210603197128C11B7A2847
:1000D000CD3021060319A428CE3021060319B328F8
:1000E0000528C11F4D29C11A8B280930A30085217D
:1000F000C10A052883168512831240088500F42062
:100100006030A3008521C01A8828051E85289A28FA
:10011000051A88289A2883168512831240088500BC
:10012000F420C830A3008521C830A3008521C83041
:10013000A30085214008203A850083168516831286
:100140003008B100C10105288519AB280030300600
:1001500003196A21AF280130300603196A21B00360
:10016000EC2089210528B00A0430300603196D21DE
:10017000EC209430A3008521052875217521752177
:10018000C01AC528051A0528C728051E0528943059
:10019000A300C01AD1287521051A7A28A30BCB28F1
:1001A000D6287521051E7A28A30BD128B00A043061
:1001B000300603196D21EC209430A300C01AE62804
:1001C0007521051A0528A30BE028D6287521051EE0
:1001D0000528A30BE628D6280030310603191A2972
:1001E0000030300603191A290130300603190E2990
:1001F000023030060319122903303006031916297C
:1002000000303006031905290B2985190B29003008
:10021000303A870042290130B000EC281B30303AD8
:10022000870042292D30303A870042293E30303A4B
:10023000870042290030300603192B29013030068F
:1002400003193129023030060319372903303006EB
:1002500003193D290B2907080F390038303A870068
:10026000422907080F391038303A87004229070819
:100270000F392038303A8700422907080F393038C3
:10028000303A8700300883169A001C1555309D00BF
:10029000AA309D009C14831208000730303A303990
:1002A00003195C2907083F39C1001030303A870034
:1002B0003C30A3008521652907083F39C100003083
:1002C000303A87003C30A300852141088700C101F6
:1002D000C11705280430B0000800851972290030C4
:1002E000B00008000130B000080081018316010849
:1002F000F039810083121430A2008B160B110B1DF4
:100300007F29A20B7E298B1208007521A30B85295A
:1003100008009430A3007521A30B8B2908008501E8
:1003200087010730990018308B00831670308F00DA
:1003300091013F30850087010230960080308100B6
:100340008312B001B101031083169B011C141A081B
:100350008312B000B100F420C0012030051EC0009F
:060360001A21C10105286D
:04036600003400342B
:02400E00D438A4
:024200000100BB
:00000001FF
