:020000040000FA
:080000008301000000007B29D0
:020008000800EE
:06000A00A1018518192870
:100010000B10C01A12280B181928051EB4280B182B
:1000200019280B280B181928051AB4280B18192899
:1000300012288B1000000518A1178B1C1D28051D08
:100040001F288B100B10051821178B1C2528051D48
:1000500027288B1000000518A1168B1C2D28051DC4
:100060002F288B100000051821168B1C3528051D24
:1000700037288B1000000518A1158B1C3D288B100C
:100080000000051D3F28051821158B1C4528051D5E
:1000900047288B1000000518A1148B1C4D28051D46
:1000A0004F288B100000051821148B1C55280B18A5
:1000B00005280F30210603196828C11B7128CD308F
:1000C000210603199B28CE3021060319AA280528EA
:1000D000C11F3C29C11A82280930A3007121C10A1D
:1000E000052883168512831240088500EB206030B6
:1000F000A3007121C01A7F28051E7C289128051AAB
:100100007F28912883168512831240088500EB20F2
:10011000C830A3007121C830A3007121C830A300EA
:1001200071214008203A8500831685168312300815
:10013000B100C10105288519A22800303006031935
:100140005621A6280130300603195621B003E320BA
:1001500075210528B00A0430300603195921E3201F
:100160009430A30071210528612161216121C01A09
:10017000BC28051A0528BE28051E05289430A300B2
:10018000C01AC8286121051A7128A30BC228CD28DE
:100190006121051E7128A30BC828B00A043030065F
:1001A00003195921E3209430A300C01ADD286121EE
:1001B000051A0528A30BD728CD286121051E05287F
:1001C000A30BDD28CD280030310603190D2900309E
:1001D000300603190D2901303006031904290230B5
:1001E0003006031907290330300603190A290030A5
:1001F00030060319FC2801298519012900308700E0
:1002000031290130B000E3281B30870031292D301F
:10021000870031293E30870031290030300603192C
:100220001E29013030060319232902303006031934
:1002300028290330300603192D29012907080F3911
:1002400000388700312907080F3910388700312915
:1002500007080F3920388700312907080F3930384F
:100260008700300883169A001C1555309D00AA306F
:100270009D009C1483120800073030390319492966
:1002800007083F39C100103087003C30A3007121BE
:10029000512907083F39C100003087003C30A300D6
:1002A000712141088700C101C11705280430B00041
:1002B000080085195E290030B00008000130B00048
:1002C0000800810183160108F0398100831214307F
:1002D000A2008B160B110B1D6B29A20B6A298B1226
:1002E00008006121A30B712908009430A30061214B
:1002F000A30B772908008501870107309900183082
:100300008B00831670308F0091013F30850087018C
:1003100002309600803081008312B001B1010310D9
:1003200083169B011C141A088312B000B100EB2045
:0E033000C0012030051EC0000D21C1010528AE
:02033E00003489
:02034000003487
:02400E00D438A4
:024200000100BB
:00000001FF
