:020000040000FA
:080000008301000000008429C7
:0800080018308B00A10100007B
:100010000518A1178B1C0A28051D0C288B100B1026
:10002000051821178B1C1228051D142800008B10A1
:100030000518A1168B1C1A28051D1C2800008B1002
:10004000051821168B1C2228051D242800008B1062
:100050000518A1158B1C2A28051D2C2800008B10C3
:10006000051821158B1C3228051D342800008B1023
:100070000518A1148B1C3A28051D3C2800008B1084
:10008000051821148B1C42280B184828221408003C
:100090008B01A101A2018B1509008B01A20185181A
:1000A000042088308B00C01A5A2822185F28051EA9
:1000B000BB28552822185F28051ABB285A288B010F
:1000C0000F30210603196F28C11B7828CD30210677
:1000D0000319A228CE3021060319B1284D28C11FCB
:1000E0004429C11A89280930A4007A21C10A4D285F
:1000F00083168512831240088500F3206030A40027
:100100007A21C01A8628051E83289828051A862871
:10011000982883168512831240088500F320C83082
:10012000A4007A21C830A4007A21C830A4007A2122
:100130004008203A85008316851683123008B100E6
:10014000C1014D288519A9280030300603195E2108
:10015000AD280130300603195E21B003EB207E216B
:100160004D28B00A0430300603196121EB20943089
:10017000A4007A214D288B01692169216921C01AC7
:10018000C428051A4D28C628051E4D289430A40001
:10019000C01AD0286921051A7828A40BCA28D528A6
:1001A0006921051E7828A40BD028B00A0430300637
:1001B00003196121EB209430A400C01AE5286921BD
:1001C000051A4D28A40BDF28D5286921051E4D28C6
:1001D000A40BE528D5280030310603191529003075
:1001E0003006031915290130300603190C29023095
:1001F000300603190F290330300603191229003085
:1002000030060319042909298519092900308700B6
:1002100039290130B000EB281B30870039292D30F7
:10022000870039293E30870039290030300603190C
:1002300026290130300603192B2902303006031914
:1002400030290330300603193529092907080F39E9
:1002500000388700392907080F39103887003929F5
:1002600007080F3920388700392907080F39303837
:100270008700300883169A001C1555309D00AA305F
:100280009D009C148312080007303039031951294E
:1002900007083F39C100103087003C30A4007A21A4
:1002A000592907083F39C100003087003C30A400BD
:1002B0007A2141088700C101C1174D280430B000E0
:1002C0000800851966290030B00008000130B00030
:1002D0000800810183160108F0398100831214306F
:1002E000A30020308B000B110B1D7429A30B732965
:1002F0008B0108006921A40B7A2908009430A4001E
:100300006921A40B80290800850187010730990025
:100310008B01831670308F009101870102309600A7
:10032000803081008312B001B101031083169B015C
:100330001C141A088312B000B100F320C001203051
:10034000051EC000C01AA92983162030950081130C
:0803500083121521C1014D28A3
:040358000034003439
:02400E00D438A4
:024200000100BB
:00000001FF
