:020000040000FA
:080000008301000000009029BB
:0800080018308B00000000001D
:100010000518A1178B1C0A28051D0C288B100B1026
:10002000051821178B1C1228051D14288B100000A1
:100030000518A1168B1C1A28051D1C288B10000002
:10004000051821168B1C2228051D24288B10000062
:100050000518A1158B1C2A28051D2C288B100000C3
:10006000051821158B1C3228051D34288B10000023
:100070000518A1148B1C3A28051D3C288B10000084
:10008000051821148B1C42280B184828221408003C
:0A0090008B01A101A2018B150900EC
:06009A008B01A101A2018F
:1000A0008518042088308B00C01A5B28221860282D
:1000B000051EBC28562822186028051ABC285B2873
:1000C0008B010F30210603197028C11B7928CD3010
:1000D00021060319A328CE3021060319B2284D2882
:1000E000C11F4529C11A8A280930A4007B21C10AF1
:1000F0004D2883168512831240088500F420603055
:10010000A4007B21C01A8728051E84289928051A77
:100110008728992883168512831240088500F420C9
:10012000C830A4007B21C830A4007B21C830A400C3
:100130007B214008203A85008316851683123008FB
:10014000B100C1014D288519AA28003030060319D5
:100150005F21AE280130300603195F21B003EC2087
:100160007F214D28B00A0430300603196221EC20AB
:080170009430A4007B214D280E
:080178008B016A216A216A2152
:10018000C01AC528051A4D28C728051E4D289430C9
:10019000A400C01AD1286A21051A7928A40BCB28FB
:1001A000D6286A21051E7928A40BD128B00A04306C
:1001B000300603196221EC209430A400C01AE6280E
:1001C0006A21051A4D28A40BE028D6286A21051EAD
:0801D0004D28A40BE628D628F7
:0801D80000303106031916295D
:1001E00000303006031916290130300603190D2995
:1001F0000230300603191029033030060319132981
:1002000000303006031905290A2985190A2900300A
:1002100087003A290130B000EC281B3087003A29CA
:100220002D3087003A293E3087003A2900303006C9
:10023000031927290130300603192C290230300612
:100240000319312903303006031936290A29070812
:100250000F39003887003A2907080F39103887000E
:100260003A2907080F39203887003A2907080F393B
:1002700030388700300883169A001C1555309D00D1
:10028000AA309D009C1483120800073030390319EE
:10029000522907083F39C100103087003C30A400C4
:1002A0007B215A2907083F39C100003087003C30C4
:1002B000A4007B2141088700C101C1174D280430EB
:1002C000B0000800851967290030B000080001302F
:1002D000B0000800810183160108F0398100831203
:1002E0001430A30020308B000B110B1D7529A30BBC
:1002F00074298B0108006A21A40B7B290800943023
:0A030000A4006A21A40B8129080063
:04030A000034003487
:1003200085018701073099008B01831670308F009B
:1003300091013F30850087010230960080308100B6
:100340008312B001B101031083169B011C141A081B
:100350008312B000B100F420C0012030051EC0009F
:060360001621C1014D2829
:02400E00D438A4
:024200000100BB
:00000001FF
