:020000040000FA
:080000008301000000008F29BC
:0800080018308B00A10100007B
:100010000518A1178B1C0A28051D0C288B100B1026
:10002000051821178B1C1228051D142800008B10A1
:100030000518A1168B1C1A28051D1C2800008B1002
:10004000051821168B1C2228051D242800008B1062
:100050000518A1158B1C2A28051D2C2800008B10C3
:10006000051821158B1C3228051D342800008B1023
:100070000518A1148B1C3A28051D3C2800008B1084
:10008000051821148B1C42280B184828221408003C
:100090008B01A101A2018B1509008B01A20185181A
:1000A000042088308B00C01A5A2822185F28051EA9
:1000B000BB28552822185F28051ABB285A288B010F
:1000C0000F30210603196F28C11B7828CD30210677
:1000D0000319A228CE3021060319B1284D28C11FCB
:1000E0004C29C11A89280930A4008521C10A4D284C
:1000F00083168512831240088500F3206030A40027
:100100008521C01A8628051E83289828051A862866
:10011000982883168512831240088500F320C83082
:10012000A4008521C830A4008521C830A400852101
:100130004008203A85008316851683123008B100E6
:10014000C1014D288519A9280030300603196921FD
:10015000AD280130300603196921B003EB20892155
:100160004D28B00A0430300603196C21EB2094307E
:10017000A40085214D288B01742174217421C01A9B
:10018000C428051A4D28C628051E4D289430A40001
:10019000C01AD0287421051A7828A40BCA28D5289B
:1001A0007421051E7828A40BD028B00A043030062C
:1001B00003196C21EB209430A400C01AE5287421A7
:1001C000051A4D28A40BDF28D5287421051E4D28BB
:1001D000A40BE528D5280030310603191929003071
:1001E0003006031919290130300603190D29023090
:1001F0003006031911290330300603191529003080
:100200003006031904290A2985190A290030303AD1
:10021000870041290130B000EB281B30303A8700BD
:1002200041292D30303A870041293E30303A87004D
:1002300041290030300603192A29013030060319FC
:1002400030290230300603193629033030060319ED
:100250003C290A2907080F390038303A870041291C
:1002600007080F391038303A8700412907080F393D
:100270002038303A8700412907080F393038303AA2
:100280008700300883169A001C1555309D00AA304F
:100290009D009C14831208000730303A303903194E
:1002A0005B2907083F39C1001030303A87003C30E5
:1002B000A4008521642907083F39C1000030303A85
:1002C00087003C30A400852141088700C101C11787
:1002D0004D280430B0000800851971290030B000A5
:1002E00008000130B0000800810183160108F039D0
:1002F000810083121430A30020308B000B110B1DE2
:100300007F29A30B7E298B0108007421A40B85296A
:1003100008009430A4007421A40B8B2908008501E7
:100320008701073099008B01831670308F0091018F
:10033000870102309600803081008312B001B10144
:10034000031083169B011C141A088312B000B1001D
:10035000F320C0012030051EC000C01AB429831646
:0E03600020309500811383121921C1014D2810
:02036E00003459
:02037000003457
:02400E00D438A4
:024200000100BB
:00000001FF
