:020000040000FA
:080000008301000000008429C7
:020008000800EE
:06000A00A1018518192870
:100010000B10C01A12280B181928051EBD280B1822
:1000200019280B280B181928051ABD280B18192890
:100030001228851819288B100518A1178B1C1E284B
:100040000B108B1005088B1C050801398B1C23280D
:10005000031D21178B1005088B1C050801398B1C0B
:100060002C28031DA1168B1005088B1C05080139CF
:100070008B1C3528031D21168B1005088B1C0508C9
:1000800001398B1C3E28031DA1158B1005088B1C04
:10009000050801398B1C4728031D21158B10050805
:1000A0008B1C050801398B1C5028031DA1148B10D3
:1000B00005088B1C050801398B1C5928031D2114C8
:1000C0000B1805280F30210603197128C11B7A2847
:1000D000CD3021060319A428CE3021060319B328F8
:1000E0000528C11F4529C11A8B280930A3007A2190
:1000F000C10A052883168512831240088500F42062
:100100006030A3007A21C01A8828051E85289A2805
:10011000051A88289A2883168512831240088500BC
:10012000F420C830A3007A21C830A3007A21C83057
:10013000A3007A214008203A850083168516831291
:100140003008B100C10105288519AB280030300600
:1001500003195F21AF280130300603195F21B00376
:10016000EC207E210528B00A0430300603196221F4
:10017000EC209430A3007A2105286A216A216A21A3
:10018000C01AC528051A0528C728051E0528943059
:10019000A300C01AD1286A21051A7A28A30BCB28FC
:1001A000D6286A21051E7A28A30BD128B00A04306C
:1001B000300603196221EC209430A300C01AE6280F
:1001C0006A21051A0528A30BE028D6286A21051EF6
:1001D0000528A30BE628D628003031060319162976
:1001E00000303006031916290130300603190D2995
:1001F0000230300603191029033030060319132981
:1002000000303006031905290A2985190A2900300A
:1002100087003A290130B000EC281B3087003A29CA
:100220002D3087003A293E3087003A2900303006C9
:10023000031927290130300603192C290230300612
:100240000319312903303006031936290A29070812
:100250000F39003887003A2907080F39103887000E
:100260003A2907080F39203887003A2907080F393B
:1002700030388700300883169A001C1555309D00D1
:10028000AA309D009C1483120800073030390319EE
:10029000522907083F39C100103087003C30A300C5
:1002A0007A215A2907083F39C100003087003C30C5
:1002B000A3007A2141088700C101C1170528043035
:1002C000B0000800851967290030B000080001302F
:1002D000B0000800810183160108F0398100831203
:1002E0001430A2008B160B110B1D7429A20B73295D
:1002F0008B1208006A21A30B7A2908009430A3000E
:100300006A21A30B80290800850187010730990025
:1003100018308B00831670308F0091013F308500BC
:10032000870102309600803081008312B001B10154
:10033000031083169B011C141A088312B000B1002D
:10034000F420C0012030051EC0001621C10105287F
:040350000034003441
:02400E00D438A4
:024200000100BB
:00000001FF
