:020000040000FA
:080000008301000000009129BA
:020008000800EE
:06000A00A1018518192870
:100010000B10C01A12280B181928051EB5280B182A
:1000200019280B280B181928051AB5280B18192898
:100030001228851819288B100518A1178B1C1E284B
:10004000051D20288B100B10051821178B1C262846
:10005000051D28288B1000000518A1168B1C2E28C2
:10006000051D30288B100000051821168B1C362822
:10007000051D38288B1000000518A1158B1C3E2883
:100080008B100000051D4028051821158B1C4628E3
:10009000051D48288B1000000518A1148B1C4E2844
:1000A000051D50288B100000051821148B1C5628A4
:1000B0000B1805280F30210603196928C11B722867
:1000C000CD30210603199C28CE3021060319AB2818
:1000D0000528C11F5129C11A83280930A30087218F
:1000E000C10A052883168512831240088500EC207A
:1000F0006030A3008721C01A8028051E7D28922821
:10010000051A8028922883168512831240088500DC
:10011000EC20C830A3008721C830A3008721C83055
:10012000A30087214008203A850083168516831294
:100130003008B100C10105288519A3280030300618
:1001400003196C21A7280130300603196C21B00374
:10015000E4208B210528B00A0430300603196F21F2
:10016000E4209430A3008721052877217721772187
:10017000C01ABD28051A0528BF28051E0528943079
:10018000A300C01AC9287721051A7228A30BC32817
:10019000CE287721051E7228A30BC928B00A043087
:1001A000300603196F21E4209430A300C01ADE2822
:1001B0007721051A0528A30BD828CE287721051EFC
:1001C0000528A30BDE28CE2800303106031922298A
:1001D00000303006031922290130300603190A299C
:1001E00002303006031912290330300603191A2988
:1001F000003030060319FD280729851907298701D2
:1002000083160730870083120030870046290130AB
:10021000B000E42887018316063087008312183067
:10022000870046298701831605308700831228300E
:1002300087004629870183160330870083123830F0
:100240008700462900303006031933290130300673
:10025000031938290230300603193D2903303006CE
:100260000319422907290708083900388700462959
:100270000708083910388700462907080839203848
:100280008700462907080839303887003008831668
:100290009A001C1555309D00AA309D009C148312B5
:1002A00008000730303903195E2907080839C100F2
:1002B000103887003C30A3008721662907080839D9
:1002C000C100003887003C30A3008721410838393D
:1002D0008700C101C11705280430B0000800851946
:1002E00074290030B00008000130B000080081011E
:1002F00083160108F039810083121430A2008B1696
:100300000B110B1D8129A20B80298B12080077216C
:10031000A30B872908009430A3007721A30B8D2914
:100320000800850187010730990018308B0083167B
:1003300070308F0091013F30850006308700023019
:100340009600803081008312B001B1010310831642
:100350009B011C141A088312B000B100EC20C001EC
:0C0360002030051EC0002221C10105282C
:04036C000034003425
:02400E00D438A4
:024200000100BB
:00000001FF
