:020000040000FA
:080000008301000000009029BB
:0800080018308B00000000001D
:100010000518A1178B1C0A28051D0C288B100B1026
:10002000051821178B1C1228051D14288B100000A1
:100030000518A1168B1C1A28051D1C288B10000002
:10004000051821168B1C2228051D24288B10000062
:100050000518A1158B1C2A28051D2C288B100000C3
:10006000051821158B1C3228051D34288B10000023
:100070000518A1148B1C3A28051D3C288B10000084
:10008000051821148B1C42280B184828221408003C
:0A0090008B01A101A2018B150900EC
:06009A008B01A101A2018F
:1000A0008518042088308B00C01A5B28221860282D
:1000B000051EBC28562822186028051ABC285B2873
:1000C0008B010F30210603197028C11B7928CD3010
:1000D00021060319A328CE3021060319B2284D2882
:1000E000C11F4D29C11A8A280930A4008621C10ADE
:1000F0004D2883168512831240088500F420603055
:10010000A4008621C01A8728051E84289928051A6C
:100110008728992883168512831240088500F420C9
:10012000C830A4008621C830A4008621C830A400AD
:1001300086214008203A85008316851683123008F0
:10014000B100C1014D288519AA28003030060319D5
:100150006A21AE280130300603196A21B003EC2071
:100160008A214D28B00A0430300603196D21EC2095
:080170009430A40086214D2803
:080178008B0175217521752131
:10018000C01AC528051A4D28C728051E4D289430C9
:10019000A400C01AD1287521051A7928A40BCB28F0
:1001A000D6287521051E7928A40BD128B00A043061
:1001B000300603196D21EC209430A400C01AE62803
:1001C0007521051A4D28A40BE028D6287521051E97
:0801D0004D28A40BE628D628F7
:0801D8000030310603191A2959
:1001E0000030300603191A290130300603190E2990
:1001F000023030060319122903303006031916297C
:1002000000303006031905290B2985190B29003008
:10021000303A870042290130B000EC281B30303AD8
:10022000870042292D30303A870042293E30303A4B
:10023000870042290030300603192B29013030068F
:1002400003193129023030060319372903303006EB
:1002500003193D290B2907080F390038303A870068
:10026000422907080F391038303A87004229070819
:100270000F392038303A8700422907080F393038C3
:10028000303A8700300883169A001C1555309D00BF
:10029000AA309D009C14831208000730303A303990
:1002A00003195C2907083F39C1001030303A870034
:1002B0003C30A4008621652907083F39C100003081
:1002C000303A87003C30A400862141088700C101F4
:1002D000C1174D280430B00008008519722900307C
:1002E000B00008000130B000080081018316010849
:1002F000F039810083121430A30020308B000B11E1
:100300000B1D8029A30B7F298B0108007521A40BED
:10031000862908009430A4007521A40B8C290800BC
:1003200085018701073099008B01831670308F009B
:1003300091013F30850087010230960080308100B6
:100340008312B001B101031083169B011C141A081B
:100350008312B000B100F420C0012030051EC0009F
:060360001A21C1014D2825
:04036600003400342B
:02400E00D438A4
:024200000100BB
:00000001FF
