:020000040000FA
:080000008301000000008429C7
:020008000800EE
:06000A00FF30A100851883
:1000100019280B10C01A13280B181928051EAA2816
:100020000B1819280C280B181928051AAA280B1CBC
:1000300013280000000000000000051CA1138B1015
:100040008B1C202838308B00051C21138B1C262884
:100050008B100000051CA1128B1C2C288B1000009B
:10006000051C21128B1C32288B100000051CA111CD
:100070008B1C38288B100000051C21118B108B1C49
:100080003F288B100000051CA1108B1C45288B10ED
:100090000000051C21108B1C4B280B1805280F3065
:1000A000210603195E28C11B6728CD3021060319DC
:1000B0009128CE3021060319A0280528C11F422906
:1000C000C11A78280930A3007A21C10A05288316AD
:1000D0008512831240088500E1206030A3007A2158
:1000E000C01A7528051E72288728051A75288728C2
:1000F00083168512831240088500E120C830A300D2
:100100007A21C830A3007A21C830A3007A214008A0
:10011000203A85008316851683123008B100C1018C
:1001200005288519982800303006031962219C287B
:100130000130300603196221B003D9207E21052841
:10014000B00A0430300603196521D9209430A30089
:100150007A2105286D216D216D21C01AB228051A5A
:100160000528B428051E05289430A300C01ABE280F
:100170006D21051A6728A30BB828C3286D21051E19
:100180006728A30BBE28B00A043030060319652186
:10019000D9209430A300C01AD3286D21051A052850
:1001A000A30BCD28C3286D21051E0528A30BD3283A
:1001B000C3280030310603190B290030300603191B
:1001C0000B29013030060319FC28023030060319D0
:1001D00001290330300603190629003030060319BF
:1001E000F228F9288519F92800304218303A87009A
:1001F00037290130B000D9281B304218303A870027
:1002000037292D304218303A870037293E304218BE
:10021000303A870037290030300603191C29013095
:100220003006031923290230300603192A29033026
:10023000300603193129F92807080F390038421808
:10024000303A8700372907080F3910384218303AFA
:100250008700372907080F3920384218303A8700BD
:10026000372907080F3930384218303A87003008EC
:1002700083169A001C1555309D00AA309D009C14D1
:100280008312080007304218303A303903195329D5
:1002900007083F39C10010304218303A87003C301F
:1002A000A3007A215D2907083F39C10000304218B8
:1002B000303A87003C30A3007A2141088700C10111
:1002C000C11705280430B000080085196A290030DC
:1002D000B00008000130B00008008316C130810072
:1002E00083120A30A20081010B110B1D7529A20B8C
:1002F000742908006D21A30B7A2908009430A3000B
:100300006D21A30B80290800850187010730990022
:1003100038308B00831670308F0091013F3085009C
:10032000870102309600C13081008312B001B10113
:10033000031083169B011C141A088312B000B1002D
:10034000E120C0012030051EC0000130C2000B2199
:04035000C1010528BA
:04035400003400343D
:02400E00D438A4
:024200000100BB
:00000001FF
