:020000040000FA
:080000008301000000008A29C1
:020008000800EE
:06000A00A1018518192870
:100010000B10C01A12280B181928051EB1280B182E
:1000200019280B280B181928051AB1280B1819289C
:1000300012288B1000000518A1178B1C1D28051D08
:100040001F288B100B10051821178B1C2528051D48
:1000500027288B1000000518A1168B1C2D28051DC4
:100060002F288B100000051821168B1C3528051D24
:1000700037288B1000000518A1158B1C3D288B100C
:100080000000051D3F28051821158B1C4528051D5E
:1000900047288B1000000518A1148B1C4D28051D46
:1000A0004F288B100000051821148B1C55280B18A5
:1000B00005280F30210603196828C11B7128CD308F
:1000C000210603199828CE3021060319A7280528F0
:1000D000C11F4429C11A82280430A3008021C10A0B
:1000E000052883168512831240088500E7203030EA
:1000F000A3008021C01A7F28051E7C288E28051A9F
:100100007F288E2883168512831240088500E720F9
:100110009630A30080219630A30080214008203A29
:1001200085008316851683123008B100C1010528A9
:1001300085199F280030300603196521A328013056
:10014000300603196521B003DF2084210528B00A99
:100150000430300603196821DF204A30A3008021D3
:10016000052870217021C01AB828051A0528BA2858
:10017000051E05284A30A300C01AC4287021051A9C
:100180007128A30BBE28C9287021051E7128A30B56
:10019000C428B00A0430300603196821DF204A3031
:1001A000A300C01AD9287021051A0528A30BD3284B
:1001B000C9287021051E0528A30BD928C92800309D
:1001C00031060319132900303006031913290130B1
:1001D00030060319012902303006031907290330BC
:1001E000300603190D29003030060319F828FF28BE
:1001F0008519FF2883160F308700831226290130C6
:10020000B000870183160B30870083122B298701EA
:1002100083160D30870083123029870183160E3034
:100220008700831235290030300603192629013052
:10023000300603192B290230300603193029033008
:100240003006031935290130B000392900308719EB
:10025000303A8700392910308719303A8700392918
:1002600020308719303A8700392930308719303AE1
:100270008700300883169A001C1555309D00AA305F
:100280009D009C148312080007308719303A3039DA
:100290000319552907083F39C10010308719303A32
:1002A00087001E30A30080215F2907083F39C10065
:1002B00000308719303A87001E30A30080214108A2
:1002C00030398700C101C11705280430B00008008B
:1002D00085196D290030B00008000130B000080019
:1002E000810183160108F039810083122830A200B1
:1002F0008B160B110B1D7A29A20B79298B12080082
:100300007021A30B802908004A30A3007021A30BA1
:1003100086290800850187010730990018308B0075
:10032000831670308F0091013F3085000F308700B9
:1003300002309600803081008312B001B1010310B9
:1003400083169B011C141A088312B000B100E72029
:0C035000C0012030051EC000C1010528BE
:04035C000034003435
:02400E00D438A4
:024200000100BB
:00000001FF
