:020000040000FA
:080000008301000000009429B7
:0800080018308B00000000001D
:100010000518A1178B1C0A28051D0C288B100B1026
:10002000051821178B1C1228051D14288B100000A1
:100030000518A1168B1C1A28051D1C288B10000002
:10004000051821168B1C2228051D24288B10000062
:100050000518A1158B1C2A28051D2C288B100000C3
:10006000051821158B1C3228051D34288B10000023
:100070000518A1148B1C3A28051D3C288B10000084
:10008000051821148B1C42280B184828221408003C
:0A0090008B01A101A2018B150900EC
:06009A008B01A101A2018F
:1000A0008518042088308B00C01A5B28221860282D
:1000B000051EB928562822186028051AB9285B2879
:1000C0008B010F30210603197028C11B7928CD3010
:1000D00021060319A028CE3021060319AF284D2888
:1000E000C11F4D29C11A8A280430A4008A21C10ADF
:1000F0004D2883168512831240088500F020303089
:10010000A4008A21C01A8728051E84289628051A6B
:100110008728962883168512831240088500F020D0
:100120009630A4008A219630A4008A214008203A03
:1001300085008316851683123008B100C1014D2851
:100140008519A7280030300603196E21AB2801302D
:10015000300603196E21B003E8208E214D28B00A25
:100160000430300603197121E8204A30A4008A21A6
:020170004D2818
:0E0172008B0179217921C01AC128051A4D2868
:10018000C328051E4D284A30A400C01ACD28792165
:10019000051A7928A40BC728D2287921051E7928A9
:1001A000A40BCD28B00A0430300603197121E820D1
:1001B0004A30A400C01AE2287921051A4D28A40B60
:1001C000DC28D2287921051E4D28A40BE228D2284C
:1001D0000030310603191C290030300603191C2990
:1001E0000130300603190A2902303006031910299C
:1001F000033030060319162900303006031901298F
:1002000008298519082983160F30870083122F29A2
:100210000130B000870183160B3087008312342928
:10022000870183160D3087008312392987018316D1
:100230000E30870083123E290030300603192F2923
:1002400001303006031934290230300603193929E8
:100250000330300603193E290130B0004229003036
:100260008719303A8700422910308719303A8700C1
:10027000422920308719303A8700422930308719C7
:10028000303A8700300883169A001C1555309D00BF
:10029000AA309D009C148312080007308719303A59
:1002A000303903195E2907083F39C100103087191A
:1002B000303A87001E30A4008A21682907083F3998
:1002C000C10000308719303A87001E30A4008A210F
:1002D000410830398700C101C1174D280430B000F2
:1002E0000800851976290030B00008000130B00000
:1002F0000800810183160108F0398100831228303B
:10030000A30020308B000B110B1D8429A30B832924
:100310008B0108007921A40B8A2908004A30A40027
:080320007921A40B90290800CB
:080328008501870107309900EF
:100330008B01831670308F0091013F3085000F30A4
:10034000870002309600803081008312B001B10135
:10035000031083169B011C141A088312B000B1000D
:0E036000F020C0012030051EC000C1014D2854
:02036E00003459
:02037000003457
:02400E00D438A4
:024200000100BB
:00000001FF
