:020000040000FA
:080000008301000000008B29C0
:020008000800EE
:06000A00A1018518192870
:100010000B10C01A12280B181928051EB2280B182D
:1000200019280B280B181928051AB2280B1819289B
:100030001228851819288B100518A1178B1C1E284B
:10004000051D20288B100B10051821178B1C262846
:10005000051D28288B1000000518A1168B1C2E28C2
:10006000051D30288B100000051821168B1C362822
:10007000051D38288B1000000518A1158B1C3E2883
:100080008B100000051D4028051821158B1C4628E3
:10009000051D48288B1000000518A1148B1C4E2844
:1000A000051D50288B100000051821148B1C5628A4
:1000B0000B1805280F30210603196928C11B722867
:1000C000CD30210603199928CE3021060319A8281E
:1000D0000528C11F4529C11A83280430A3008121A6
:1000E000C10A052883168512831240088500E8207E
:1000F0003030A3008121C01A8028051E7D288F285A
:10010000051A80288F2883168512831240088500DF
:10011000E8209630A30081219630A3008121400879
:10012000203A85008316851683123008B100C1017C
:1001300005288519A0280030300603196621A42857
:100140000130300603196621B003E020852105281F
:10015000B00A0430300603196921E0204A30A300B8
:100160008121052871217121C01AB928051A052895
:10017000BB28051E05284A30A300C01AC5287121D6
:10018000051A7228A30BBF28CA287121051E7228E0
:10019000A30BC528B00A0430300603196921E020FA
:1001A0004A30A300C01ADA287121051A0528A30BCA
:1001B000D428CA287121051E0528A30BDA28CA28CD
:1001C00000303106031914290030300603191429B0
:1001D00001303006031902290230300603190829BC
:1001E0000330300603190E29003030060319F928B0
:1001F00000298519002983160F30870083122729CB
:100200000130B000870183160B30870083122C2940
:10021000870183160D3087008312312987018316E9
:100220000E30870083123629003030060319272943
:100230000130300603192C29023030060319312908
:1002400003303006031936290130B0003A29003056
:100250008719303A87003A2910308719303A8700D9
:100260003A2920308719303A87003A2930308719E7
:10027000303A8700300883169A001C1555309D00CF
:10028000AA309D009C148312080007308719303A69
:1002900030390319562907083F39C1001030871932
:1002A000303A87001E30A3008121602907083F39BA
:1002B000C10000308719303A87001E30A300812129
:1002C000410830398700C101C11705280430B0004A
:1002D000080085196E290030B00008000130B00018
:1002E0000800810183160108F0398100831228304B
:1002F000A2008B160B110B1D7B29A20B7A298B12E6
:1003000008007121A30B812908004A30A300712144
:10031000A30B872908008501870107309900183051
:100320008B00831670308F0091013F3085000F30B5
:10033000870002309600803081008312B001B10145
:10034000031083169B011C141A088312B000B1001D
:0E035000E820C0012030051EC000C1010528B4
:02035E00003469
:02036000003467
:02400E00D438A4
:024200000100BB
:00000001FF
