:020000040000FA
:080000008301000000009329B8
:020008000800EE
:06000A00A1018518192870
:100010000B10C01A12280B181928051EBA280B1825
:1000200019280B280B181928051ABA280B18192893
:100030001228851819288B100518A1178B1C1E284B
:100040000B108B1005088B1C050801398B1C23280D
:10005000031D21178B1005088B1C050801398B1C0B
:100060002C28031DA1168B1005088B1C05080139CF
:100070008B1C3528031D21168B1005088B1C0508C9
:1000800001398B1C3E28031DA1158B1005088B1C04
:10009000050801398B1C4728031D21158B10050805
:1000A0008B1C050801398B1C5028031DA1148B10D3
:1000B00005088B1C050801398B1C5928031D2114C8
:1000C0000B1805280F30210603197128C11B7A2847
:1000D000CD3021060319A128CE3021060319B028FE
:1000E0000528C11F4D29C11A8B280430A30089217E
:1000F000C10A052883168512831240088500F02066
:100100003030A3008921C01A8828051E8528972829
:10011000051A8828972883168512831240088500BF
:10012000F0209630A30089219630A3008921400851
:10013000203A85008316851683123008B100C1016C
:1001400005288519A8280030300603196E21AC282F
:100150000130300603196E21B003E8208D210528F7
:10016000B00A0430300603197121E8204A30A30098
:100170008921052879217921C01AC128051A052865
:10018000C328051E05284A30A300C01ACD287921AE
:10019000051A7A28A30BC728D2287921051E7A28A8
:1001A000A30BCD28B00A0430300603197121E820D2
:1001B0004A30A300C01AE2287921051A0528A30BAA
:1001C000DC28D2287921051E0528A30BE228D22895
:1001D0000030310603191C290030300603191C2990
:1001E0000130300603190A2902303006031910299C
:1001F000033030060319162900303006031901298F
:1002000008298519082983160F30870083122F29A2
:100210000130B000870183160B3087008312342928
:10022000870183160D3087008312392987018316D1
:100230000E30870083123E290030300603192F2923
:1002400001303006031934290230300603193929E8
:100250000330300603193E290130B0004229003036
:100260008719303A8700422910308719303A8700C1
:10027000422920308719303A8700422930308719C7
:10028000303A8700300883169A001C1555309D00BF
:10029000AA309D009C148312080007308719303A59
:1002A000303903195E2907083F39C100103087191A
:1002B000303A87001E30A3008921682907083F399A
:1002C000C10000308719303A87001E30A300892111
:1002D000410830398700C101C11705280430B0003A
:1002E0000800851976290030B00008000130B00000
:1002F0000800810183160108F0398100831228303B
:10030000A2008B160B110B1D8329A20B82298B12C5
:1003100008007921A30B892908004A30A30079211C
:10032000A30B8F2908008501870107309900183039
:100330008B00831670308F0091013F3085000F30A5
:10034000870002309600803081008312B001B10135
:10035000031083169B011C141A088312B000B1000D
:0E036000F020C0012030051EC000C10105289C
:02036E00003459
:02037000003457
:02400E00D438A4
:024200000100BB
:00000001FF
