:020000040000FA
:080000008301000000003F290C
:0800080018308B00000000001D
:100010000518A1178B1C0A28051D0C288B100B1026
:10002000051821178B1C1228051D14288B100000A1
:100030000518A1168B1C1A28051D1C288B10000002
:10004000051821168B1C2228051D24288B10000062
:100050000518A1158B1C2A28051D2C288B100000C3
:10006000051821158B1C3228051D34288B10000023
:100070000518A1148B1C3A28051D3C288B10000084
:10008000051821148B1C42280B184828221408003C
:0A0090008B01A101A2018B150900EC
:06009A008B01A101A2018F
:1000A0008518042088308B0022185928051AA128A9
:0200B0005428D2
:0E00B2008B010F30210603196928C01B72282C
:1000C000CD30210603198F28CE3021060319972839
:1000D0004D28C01F0E29C01A7C280930A4003521E4
:1000E000C00A4D2883168512831285166030A4003D
:1000F0003521051A792889288316851283128516D9
:10010000C830A4003521C830A4003521C830A4006F
:1001100035218512831685168312C0014D280130C2
:10012000300603191E21B003BC2039214D28B00A26
:100130000430300603192121BC209430A40035215D
:020140004D2848
:0E0142008B01242124212421051E4D289430F8
:10015000A4002421051E7228A40BA928B00A04308B
:10016000300603192121BC209430A4002421051E4F
:080170004D28A40BB628AE28AF
:08017800013030060319CA280A
:10018000023030060319CF28033030060319D42873
:100190000130B00013308719303A87000329253029
:1001A0008719303A8700032936308719303A87009B
:1001B0000329013030060319EF28023030060319F5
:1001C000F628033030060319FD280130B000EF286F
:1001D00007080739003A8719303A870003290708CA
:1001E0000739103A8719303A870003290708073979
:1001F000203A8719303A8700032907080739303A2F
:100200008719303A8700300883169A001C1555303C
:100210009D00AA309D009C148312080007083F39F6
:10022000C0000739003A8719303A87003C30A400F3
:10023000352140088700C001C0174D280430B000A8
:1002400008000130B0000800810183160108F03970
:10025000810083121430A30020308B000B110B1D82
:100260002F29A30B2E298B0108002421A40B35294B
:0E02700008009430A4002421A40B3B290800B0
:02027E008501F8
:100280008701073099008B01831670308F00910130
:100290003F308500083087000230960080308100B2
:1002A0008312B001031083169B011C141A088312D9
:0802B000B000BC20C0014D2884
:0402B80000340034DA
:02400E00D438A4
:024200000100BB
:00000001FF
