:020000040000FA
:08000000830100000000242927
:020008000800EE
:06000A00FF30A100851883
:1000100010280B100B181028051A8B280B1C0A2807
:10002000000000008B100000051CA1138B1C16287B
:1000300038308B00051C21138B1C1C288B100000F2
:10004000051CA1128B1C22288B100000051C2112FC
:100050008B1C28288B100000051CA1118B1C2E283E
:100060008B100000051C21118B1C34288B10000004
:10007000051CA1108B1C3A288B100000051C2110B8
:100080008B1C40280B1805280F3021060319532814
:10009000C01B5C28CD30210603197928CE302106FB
:1000A000031981280528C01FF728C01A66280930BF
:1000B000A3001A21C00A052883168512831285160B
:1000C0006030A3001A21051A63287328831685124D
:1000D00083128516C830A3001A21C830A3001A2144
:1000E000C830A3001A218512831685168312C00119
:1000F00005280130300603190721B003A5201E2171
:100100000528B00A0430300603190A21A5209430CE
:10011000A3001A2105280D210D210D21051E0528FA
:100120009430A3000D21051E5C28A30B9228B00A71
:100130000430300603190A21A5209430A3000D21B4
:10014000051E0528A30B9F289728013030060319A8
:10015000B328023030060319B828033030060319DB
:10016000BD280130B00013308719303A8700EC28E1
:1001700025308719303A8700EC2836308719303A15
:100180008700EC28013030060319D82802303006E9
:100190000319DF28033030060319E6280130B000C8
:1001A000D82807080739003A8719303A8700EC2821
:1001B00007080739103A8719303A8700EC280708F2
:1001C0000739203A8719303A8700EC2807080739A1
:1001D000303A8719303A8700300883169A001C1588
:1001E00055309D00AA309D009C148312080007081A
:1001F0003F39C0000739003A8719303A87003C3050
:10020000A3001A2140088700C001C0170528043048
:10021000B00008000130B00008008316C130810032
:1002200083120A30A20081010B110B1D1529A20BAC
:10023000142908000D21A30B1A2908009430A300EB
:100240000D21A30B202908008501870107309900A3
:1002500038308B00831670308F0091013F3085005D
:100260000830870002309600C13081008312B0014F
:10027000031083169B011C141A088312B000A520DA
:04028000C00105288C
:04028400003400340E
:02400E00143864
:024200000100BB
:00000001FF
