:020000040000FA
:08000000830100000000332918
:020008000800EE
:06000A00A1018518102879
:100010000B100B181028051A97280B181028092800
:100020008B1000000518A1178B1C1428051D16281D
:100030008B100B10051821178B1C1C28051D1E2862
:100040008B1000000518A1168B1C2428051D2628DE
:100050008B100000051821168B1C2C28051D2E283E
:100060008B1000000518A1158B1C34288B10000084
:10007000051D3628051821158B1C3C28051D3E281A
:100080008B1000000518A1148B1C4428051D462860
:100090008B100000051821148B1C4C280B18052808
:1000A0000F30210603195F28C01B6828CD302106B8
:1000B00003198528CE30210603198D280528C01F75
:1000C0000329C01A72280930A3002921C00A052873
:1000D00083168512831285166030A3002921051A24
:1000E0006F287F288316851283128516C830A300D7
:1000F0002921C830A3002921C830A3002921851255
:10010000831685168312C0010528013030060319B5
:100110001321B003B1202D210528B00A0430300688
:1001200003191621B1209430A30029210528192193
:1001300019211921051E05289430A3001921051E37
:100140006828A30B9E28B00A043030060319162134
:10015000B1209430A3001921051E0528A30BAB285C
:10016000A328013030060319BF28023030060319D6
:10017000C428033030060319C9280130B0001330F9
:100180008719303A8700F82825308719303A8700D8
:10019000F82836308719303A8700F82801303006C1
:1001A0000319E428023030060319EB280330300627
:1001B0000319F2280130B000E42807080739003A93
:1001C0008719303A8700F82807080739103A871945
:1001D000303A8700F82807080739203A8719303A5B
:1001E0008700F82807080739303A8719303A87001E
:1001F000300883169A001C1555309D00AA309D00CA
:100200009C148312080007083F39C0000739003AE0
:100210008719303A87003C30A30029214008870025
:10022000C001C01705280430B00008000130B0003C
:100230000800810183160108F0398100831214300F
:10024000A2008B160B110B1D2329A20B22298B1246
:1002500008001921A30B292908009430A3001921B3
:10026000A30B2F290800850187010730990018305A
:100270008B00831670308F0091013F30850008306D
:10028000870002309600803081008312B001031095
:1002900083169B011C141A088312B000B120C00100
:0202A00005282F
:0402A20000340034F0
:02400E00D438A4
:024200000100BB
:00000001FF
