:020000040000FA
:08000000830100000000342917
:020008000800EE
:06000A00A1018518102879
:100010000B100B181028051A98280B1810280928FF
:10002000851810288B100518A1178B1C1528051D85
:1000300017288B100B10051821178B1C1D28051D68
:100040001F288B1000000518A1168B1C2528051DE4
:1000500027288B100000051821168B1C2D28051D44
:100060002F288B1000000518A1158B1C35288B102C
:100070000000051D3728051821158B1C3D28051D7E
:100080003F288B1000000518A1148B1C4528051D66
:1000900047288B100000051821148B1C4D280B18C5
:1000A00005280F30210603196028C01B6928CD30B0
:1000B000210603198628CE30210603198E2805282B
:1000C000C01F0429C01A73280930A3002A21C00ABE
:1000D000052883168512831285166030A3002A2115
:1000E000051A702880288316851283128516C83059
:1000F000A3002A21C830A3002A21C830A3002A2146
:100100008512831685168312C0010528013030063A
:1001100003191421B003B2202E210528B00A04309F
:10012000300603191721B2209430A3002A21052894
:100130001A211A211A21051E05289430A3001A211C
:10014000051E6928A30B9F28B00A04303006031946
:100150001721B2209430A3001A21051E0528A30BF5
:10016000AC28A428013030060319C028023030061C
:100170000319C528033030060319CA280130B0001E
:1001800013308719303A8700F92825308719303A1B
:100190008700F92836308719303A8700F92801306E
:1001A00030060319E528023030060319EC28033025
:1001B00030060319F3280130B000E5280708073995
:1001C000003A8719303A8700F92807080739103AAA
:1001D0008719303A8700F92807080739203A871924
:1001E000303A8700F92807080739303A8719303A3A
:1001F0008700300883169A001C1555309D00AA30E0
:100200009D009C148312080007083F39C00007397D
:10021000003A8719303A87003C30A3002A21400871
:100220008700C001C01705280430B0000800013065
:10023000B0000800810183160108F03981008312A3
:100240001430A2008B160B110B1D2429A20B23299D
:100250008B1208001A21A30B2A2908009430A3004E
:100260001A21A30B30290800850187010730990066
:1002700018308B00831670308F0091013F3085005D
:100280000830870002309600803081008312B00170
:10029000031083169B011C141A088312B000B220AD
:0402A000C00105286C
:0402A40000340034EE
:02400E00D438A4
:024200000100BB
:00000001FF
